{
  "_format": "hh-sol-artifact-1",
  "contractName": "MemeCoin",
  "sourceName": "contracts/MemeCoin.sol",
  "abi": [
    {
      "inputs": [],
      "stateMutability": "nonpayable",
      "type": "constructor"
    },
    {
      "anonymous": false,
      "inputs": [
        {
          "indexed": true,
          "internalType": "address",
          "name": "owner",
          "type": "address"
        },
        {
          "indexed": true,
          "internalType": "address",
          "name": "spender",
          "type": "address"
        },
        {
          "indexed": false,
          "internalType": "uint256",
          "name": "value",
          "type": "uint256"
        }
      ],
      "name": "Approval",
      "type": "event"
    },
    {
      "anonymous": false,
      "inputs": [
        {
          "indexed": true,
          "internalType": "address",
          "name": "previousOwner",
          "type": "address"
        },
        {
          "indexed": true,
          "internalType": "address",
          "name": "newOwner",
          "type": "address"
        }
      ],
      "name": "OwnershipTransferred",
      "type": "event"
    },
    {
      "anonymous": false,
      "inputs": [
        {
          "indexed": true,
          "internalType": "address",
          "name": "from",
          "type": "address"
        },
        {
          "indexed": true,
          "internalType": "address",
          "name": "to",
          "type": "address"
        },
        {
          "indexed": false,
          "internalType": "uint256",
          "name": "value",
          "type": "uint256"
        }
      ],
      "name": "Transfer",
      "type": "event"
    },
    {
      "anonymous": false,
      "inputs": [
        {
          "indexed": true,
          "internalType": "address",
          "name": "owner",
          "type": "address"
        },
        {
          "indexed": false,
          "internalType": "uint256",
          "name": "amount",
          "type": "uint256"
        },
        {
          "indexed": false,
          "internalType": "string",
          "name": "message",
          "type": "string"
        }
      ],
      "name": "additionalTokensMinted",
      "type": "event"
    },
    {
      "anonymous": false,
      "inputs": [
        {
          "indexed": true,
          "internalType": "address",
          "name": "owner",
          "type": "address"
        },
        {
          "indexed": false,
          "internalType": "uint256",
          "name": "amount",
          "type": "uint256"
        },
        {
          "indexed": false,
          "internalType": "string",
          "name": "message",
          "type": "string"
        }
      ],
      "name": "tokensBurned",
      "type": "event"
    },
    {
      "anonymous": false,
      "inputs": [
        {
          "indexed": true,
          "internalType": "address",
          "name": "owner",
          "type": "address"
        },
        {
          "indexed": false,
          "internalType": "uint256",
          "name": "amount",
          "type": "uint256"
        },
        {
          "indexed": false,
          "internalType": "string",
          "name": "message",
          "type": "string"
        }
      ],
      "name": "tokensMinted",
      "type": "event"
    },
    {
      "inputs": [
        {
          "internalType": "address",
          "name": "owner",
          "type": "address"
        },
        {
          "internalType": "address",
          "name": "spender",
          "type": "address"
        }
      ],
      "name": "allowance",
      "outputs": [
        {
          "internalType": "uint256",
          "name": "",
          "type": "uint256"
        }
      ],
      "stateMutability": "view",
      "type": "function"
    },
    {
      "inputs": [
        {
          "internalType": "address",
          "name": "spender",
          "type": "address"
        },
        {
          "internalType": "uint256",
          "name": "amount",
          "type": "uint256"
        }
      ],
      "name": "approve",
      "outputs": [
        {
          "internalType": "bool",
          "name": "",
          "type": "bool"
        }
      ],
      "stateMutability": "nonpayable",
      "type": "function"
    },
    {
      "inputs": [
        {
          "internalType": "address",
          "name": "account",
          "type": "address"
        }
      ],
      "name": "balanceOf",
      "outputs": [
        {
          "internalType": "uint256",
          "name": "",
          "type": "uint256"
        }
      ],
      "stateMutability": "view",
      "type": "function"
    },
    {
      "inputs": [
        {
          "internalType": "uint256",
          "name": "amount",
          "type": "uint256"
        }
      ],
      "name": "burn",
      "outputs": [],
      "stateMutability": "nonpayable",
      "type": "function"
    },
    {
      "inputs": [
        {
          "internalType": "address",
          "name": "account",
          "type": "address"
        },
        {
          "internalType": "uint256",
          "name": "amount",
          "type": "uint256"
        }
      ],
      "name": "burnFrom",
      "outputs": [],
      "stateMutability": "nonpayable",
      "type": "function"
    },
    {
      "inputs": [],
      "name": "decimals",
      "outputs": [
        {
          "internalType": "uint8",
          "name": "",
          "type": "uint8"
        }
      ],
      "stateMutability": "view",
      "type": "function"
    },
    {
      "inputs": [
        {
          "internalType": "address",
          "name": "spender",
          "type": "address"
        },
        {
          "internalType": "uint256",
          "name": "subtractedValue",
          "type": "uint256"
        }
      ],
      "name": "decreaseAllowance",
      "outputs": [
        {
          "internalType": "bool",
          "name": "",
          "type": "bool"
        }
      ],
      "stateMutability": "nonpayable",
      "type": "function"
    },
    {
      "inputs": [
        {
          "internalType": "address",
          "name": "spender",
          "type": "address"
        },
        {
          "internalType": "uint256",
          "name": "addedValue",
          "type": "uint256"
        }
      ],
      "name": "increaseAllowance",
      "outputs": [
        {
          "internalType": "bool",
          "name": "",
          "type": "bool"
        }
      ],
      "stateMutability": "nonpayable",
      "type": "function"
    },
    {
      "inputs": [
        {
          "internalType": "address",
          "name": "to",
          "type": "address"
        },
        {
          "internalType": "uint256",
          "name": "amount",
          "type": "uint256"
        }
      ],
      "name": "mint",
      "outputs": [],
      "stateMutability": "nonpayable",
      "type": "function"
    },
    {
      "inputs": [],
      "name": "name",
      "outputs": [
        {
          "internalType": "string",
          "name": "",
          "type": "string"
        }
      ],
      "stateMutability": "view",
      "type": "function"
    },
    {
      "inputs": [],
      "name": "owner",
      "outputs": [
        {
          "internalType": "address",
          "name": "",
          "type": "address"
        }
      ],
      "stateMutability": "view",
      "type": "function"
    },
    {
      "inputs": [],
      "name": "renounceOwnership",
      "outputs": [],
      "stateMutability": "nonpayable",
      "type": "function"
    },
    {
      "inputs": [],
      "name": "symbol",
      "outputs": [
        {
          "internalType": "string",
          "name": "",
          "type": "string"
        }
      ],
      "stateMutability": "view",
      "type": "function"
    },
    {
      "inputs": [],
      "name": "totalSupply",
      "outputs": [
        {
          "internalType": "uint256",
          "name": "",
          "type": "uint256"
        }
      ],
      "stateMutability": "view",
      "type": "function"
    },
    {
      "inputs": [
        {
          "internalType": "address",
          "name": "to",
          "type": "address"
        },
        {
          "internalType": "uint256",
          "name": "amount",
          "type": "uint256"
        }
      ],
      "name": "transfer",
      "outputs": [
        {
          "internalType": "bool",
          "name": "",
          "type": "bool"
        }
      ],
      "stateMutability": "nonpayable",
      "type": "function"
    },
    {
      "inputs": [
        {
          "internalType": "address",
          "name": "from",
          "type": "address"
        },
        {
          "internalType": "address",
          "name": "to",
          "type": "address"
        },
        {
          "internalType": "uint256",
          "name": "amount",
          "type": "uint256"
        }
      ],
      "name": "transferFrom",
      "outputs": [
        {
          "internalType": "bool",
          "name": "",
          "type": "bool"
        }
      ],
      "stateMutability": "nonpayable",
      "type": "function"
    },
    {
      "inputs": [
        {
          "internalType": "address",
          "name": "newOwner",
          "type": "address"
        }
      ],
      "name": "transferOwnership",
      "outputs": [],
      "stateMutability": "nonpayable",
      "type": "function"
    }
  ],
  "bytecode": "0x60806040523480156200001157600080fd5b506040518060400160405280600781526020017f466f78436f696e000000000000000000000000000000000000000000000000008152506040518060400160405280600381526020017f4658430000000000000000000000000000000000000000000000000000000000815250816003908051906020019062000096929190620003ec565b508060049080519060200190620000af929190620003ec565b505050620000d2620000c66200019260201b60201c565b6200019a60201b60201c565b6200011033620000e76200026060201b60201c565b600a620000f5919062000635565b61138862000104919062000772565b6200026960201b60201c565b3373ffffffffffffffffffffffffffffffffffffffff167f8d54cf4376f9d10619fbb6aded215dcdffc1b80415e0750f5064018278632d07620001586200026060201b60201c565b600a62000166919062000635565b61138862000175919062000772565b6040516200018491906200053a565b60405180910390a2620008dd565b600033905090565b6000600560009054906101000a900473ffffffffffffffffffffffffffffffffffffffff16905081600560006101000a81548173ffffffffffffffffffffffffffffffffffffffff021916908373ffffffffffffffffffffffffffffffffffffffff1602179055508173ffffffffffffffffffffffffffffffffffffffff168173ffffffffffffffffffffffffffffffffffffffff167f8be0079c531659141344cd1fd0a4f28419497f9722a3daafe3b4186f6b6457e060405160405180910390a35050565b60006012905090565b600073ffffffffffffffffffffffffffffffffffffffff168273ffffffffffffffffffffffffffffffffffffffff161415620002dc576040517f08c379a0000000000000000000000000000000000000000000000000000000008152600401620002d390620004fb565b60405180910390fd5b620002f060008383620003e260201b60201c565b80600260008282546200030491906200057d565b92505081905550806000808473ffffffffffffffffffffffffffffffffffffffff1673ffffffffffffffffffffffffffffffffffffffff16815260200190815260200160002060008282546200035b91906200057d565b925050819055508173ffffffffffffffffffffffffffffffffffffffff16600073ffffffffffffffffffffffffffffffffffffffff167fddf252ad1be2c89b69c2b068fc378daa952ba7f163c4a11628f55a4df523b3ef83604051620003c291906200051d565b60405180910390a3620003de60008383620003e760201b60201c565b5050565b505050565b505050565b828054620003fa90620007ea565b90600052602060002090601f0160209004810192826200041e57600085556200046a565b82601f106200043957805160ff19168380011785556200046a565b828001600101855582156200046a579182015b82811115620004695782518255916020019190600101906200044c565b5b5090506200047991906200047d565b5090565b5b80821115620004985760008160009055506001016200047e565b5090565b6000620004ab6020836200056c565b9150620004b8826200088b565b602082019050919050565b6000620004d2601f836200056c565b9150620004df82620008b4565b602082019050919050565b620004f581620007d3565b82525050565b600060208201905081810360008301526200051681620004c3565b9050919050565b6000602082019050620005346000830184620004ea565b92915050565b6000604082019050620005516000830184620004ea565b818103602083015262000564816200049c565b905092915050565b600082825260208201905092915050565b60006200058a82620007d3565b91506200059783620007d3565b9250827fffffffffffffffffffffffffffffffffffffffffffffffffffffffffffffffff03821115620005cf57620005ce62000820565b5b828201905092915050565b6000808291508390505b60018511156200062c5780860481111562000604576200060362000820565b5b6001851615620006145780820291505b808102905062000624856200087e565b9450620005e4565b94509492505050565b60006200064282620007d3565b91506200064f83620007dd565b92506200067e7fffffffffffffffffffffffffffffffffffffffffffffffffffffffffffffffff848462000686565b905092915050565b6000826200069857600190506200076b565b81620006a857600090506200076b565b8160018114620006c15760028114620006cc5762000702565b60019150506200076b565b60ff841115620006e157620006e062000820565b5b8360020a915084821115620006fb57620006fa62000820565b5b506200076b565b5060208310610133831016604e8410600b84101617156200073c5782820a90508381111562000736576200073562000820565b5b6200076b565b6200074b8484846001620005da565b9250905081840481111562000765576200076462000820565b5b81810290505b9392505050565b60006200077f82620007d3565b91506200078c83620007d3565b9250817fffffffffffffffffffffffffffffffffffffffffffffffffffffffffffffffff0483118215151615620007c857620007c762000820565b5b828202905092915050565b6000819050919050565b600060ff82169050919050565b600060028204905060018216806200080357607f821691505b602082108114156200081a57620008196200084f565b5b50919050565b7f4e487b7100000000000000000000000000000000000000000000000000000000600052601160045260246000fd5b7f4e487b7100000000000000000000000000000000000000000000000000000000600052602260045260246000fd5b60008160011c9050919050565b7f496e697469616c20737570706c79206f6620746f6b656e73206d696e7465642e600082015250565b7f45524332303a206d696e7420746f20746865207a65726f206164647265737300600082015250565b611fb280620008ed6000396000f3fe608060405234801561001057600080fd5b506004361061010b5760003560e01c806370a08231116100a257806395d89b411161007157806395d89b41146102a6578063a457c2d7146102c4578063a9059cbb146102f4578063dd62ed3e14610324578063f2fde38b146103545761010b565b806370a0823114610232578063715018a61461026257806379cc67901461026c5780638da5cb5b146102885761010b565b8063313ce567116100de578063313ce567146101ac57806339509351146101ca57806340c10f19146101fa57806342966c68146102165761010b565b806306fdde0314610110578063095ea7b31461012e57806318160ddd1461015e57806323b872dd1461017c575b600080fd5b610118610370565b60405161012591906117b7565b60405180910390f35b610148600480360381019061014391906114bd565b610402565b604051610155919061179c565b60405180910390f35b610166610425565b6040516101739190611959565b60405180910390f35b6101966004803603810190610191919061146e565b61042f565b6040516101a3919061179c565b60405180910390f35b6101b461045e565b6040516101c191906119d0565b60405180910390f35b6101e460048036038101906101df91906114bd565b610467565b6040516101f1919061179c565b60405180910390f35b610214600480360381019061020f91906114bd565b610511565b005b610230600480360381019061022b91906114f9565b6105e9565b005b61024c60048036038101906102479190611409565b6106c0565b6040516102599190611959565b60405180910390f35b61026a610708565b005b610286600480360381019061028191906114bd565b610790565b005b6102906107b0565b60405161029d9190611781565b60405180910390f35b6102ae6107da565b6040516102bb91906117b7565b60405180910390f35b6102de60048036038101906102d991906114bd565b61086c565b6040516102eb919061179c565b60405180910390f35b61030e600480360381019061030991906114bd565b610956565b60405161031b919061179c565b60405180910390f35b61033e60048036038101906103399190611432565b610979565b60405161034b9190611959565b60405180910390f35b61036e60048036038101906103699190611409565b610a00565b005b60606003805461037f90611b19565b80601f01602080910402602001604051908101604052809291908181526020018280546103ab90611b19565b80156103f85780601f106103cd576101008083540402835291602001916103f8565b820191906000526020600020905b8154815290600101906020018083116103db57829003601f168201915b5050505050905090565b60008061040d610af8565b905061041a818585610b00565b600191505092915050565b6000600254905090565b60008061043a610af8565b9050610447858285610ccb565b610452858585610d57565b60019150509392505050565b60006012905090565b600080610472610af8565b9050610506818585600160008673ffffffffffffffffffffffffffffffffffffffff1673ffffffffffffffffffffffffffffffffffffffff16815260200190815260200160002060008973ffffffffffffffffffffffffffffffffffffffff1673ffffffffffffffffffffffffffffffffffffffff168152602001908152602001600020546105019190611a07565b610b00565b600191505092915050565b610519610af8565b73ffffffffffffffffffffffffffffffffffffffff166105376107b0565b73ffffffffffffffffffffffffffffffffffffffff161461058d576040517f08c379a000000000000000000000000000000000000000000000000000000000815260040161058490611899565b60405180910390fd5b6105978282610fd8565b3373ffffffffffffffffffffffffffffffffffffffff167fc31b604bce0888a4f5e36e76eee33516a5fff7a5d58ac7dcead8174c323eebf2826040516105dd91906119a2565b60405180910390a25050565b6105f1610af8565b73ffffffffffffffffffffffffffffffffffffffff1661060f6107b0565b73ffffffffffffffffffffffffffffffffffffffff1614610665576040517f08c379a000000000000000000000000000000000000000000000000000000000815260040161065c90611899565b60405180910390fd5b61066f3382611138565b3373ffffffffffffffffffffffffffffffffffffffff167fcde716650b13ae41f235d679e62500d67355bc41802e6cfc087b67a7850d975f826040516106b59190611974565b60405180910390a250565b60008060008373ffffffffffffffffffffffffffffffffffffffff1673ffffffffffffffffffffffffffffffffffffffff168152602001908152602001600020549050919050565b610710610af8565b73ffffffffffffffffffffffffffffffffffffffff1661072e6107b0565b73ffffffffffffffffffffffffffffffffffffffff1614610784576040517f08c379a000000000000000000000000000000000000000000000000000000000815260040161077b90611899565b60405180910390fd5b61078e600061130f565b565b6107a28261079c610af8565b83610ccb565b6107ac8282611138565b5050565b6000600560009054906101000a900473ffffffffffffffffffffffffffffffffffffffff16905090565b6060600480546107e990611b19565b80601f016020809104026020016040519081016040528092919081815260200182805461081590611b19565b80156108625780601f1061083757610100808354040283529160200191610862565b820191906000526020600020905b81548152906001019060200180831161084557829003601f168201915b5050505050905090565b600080610877610af8565b90506000600160008373ffffffffffffffffffffffffffffffffffffffff1673ffffffffffffffffffffffffffffffffffffffff16815260200190815260200160002060008673ffffffffffffffffffffffffffffffffffffffff1673ffffffffffffffffffffffffffffffffffffffff1681526020019081526020016000205490508381101561093d576040517f08c379a000000000000000000000000000000000000000000000000000000000815260040161093490611919565b60405180910390fd5b61094a8286868403610b00565b60019250505092915050565b600080610961610af8565b905061096e818585610d57565b600191505092915050565b6000600160008473ffffffffffffffffffffffffffffffffffffffff1673ffffffffffffffffffffffffffffffffffffffff16815260200190815260200160002060008373ffffffffffffffffffffffffffffffffffffffff1673ffffffffffffffffffffffffffffffffffffffff16815260200190815260200160002054905092915050565b610a08610af8565b73ffffffffffffffffffffffffffffffffffffffff16610a266107b0565b73ffffffffffffffffffffffffffffffffffffffff1614610a7c576040517f08c379a0000000000000000000000000000000000000000000000000000000008152600401610a7390611899565b60405180910390fd5b600073ffffffffffffffffffffffffffffffffffffffff168173ffffffffffffffffffffffffffffffffffffffff161415610aec576040517f08c379a0000000000000000000000000000000000000000000000000000000008152600401610ae390611819565b60405180910390fd5b610af58161130f565b50565b600033905090565b600073ffffffffffffffffffffffffffffffffffffffff168373ffffffffffffffffffffffffffffffffffffffff161415610b70576040517f08c379a0000000000000000000000000000000000000000000000000000000008152600401610b67906118f9565b60405180910390fd5b600073ffffffffffffffffffffffffffffffffffffffff168273ffffffffffffffffffffffffffffffffffffffff161415610be0576040517f08c379a0000000000000000000000000000000000000000000000000000000008152600401610bd790611839565b60405180910390fd5b80600160008573ffffffffffffffffffffffffffffffffffffffff1673ffffffffffffffffffffffffffffffffffffffff16815260200190815260200160002060008473ffffffffffffffffffffffffffffffffffffffff1673ffffffffffffffffffffffffffffffffffffffff168152602001908152602001600020819055508173ffffffffffffffffffffffffffffffffffffffff168373ffffffffffffffffffffffffffffffffffffffff167f8c5be1e5ebec7d5bd14f71427d1e84f3dd0314c0f7b2291e5b200ac8c7c3b92583604051610cbe9190611959565b60405180910390a3505050565b6000610cd78484610979565b90507fffffffffffffffffffffffffffffffffffffffffffffffffffffffffffffffff8114610d515781811015610d43576040517f08c379a0000000000000000000000000000000000000000000000000000000008152600401610d3a90611859565b60405180910390fd5b610d508484848403610b00565b5b50505050565b600073ffffffffffffffffffffffffffffffffffffffff168373ffffffffffffffffffffffffffffffffffffffff161415610dc7576040517f08c379a0000000000000000000000000000000000000000000000000000000008152600401610dbe906118d9565b60405180910390fd5b600073ffffffffffffffffffffffffffffffffffffffff168273ffffffffffffffffffffffffffffffffffffffff161415610e37576040517f08c379a0000000000000000000000000000000000000000000000000000000008152600401610e2e906117d9565b60405180910390fd5b610e428383836113d5565b60008060008573ffffffffffffffffffffffffffffffffffffffff1673ffffffffffffffffffffffffffffffffffffffff16815260200190815260200160002054905081811015610ec8576040517f08c379a0000000000000000000000000000000000000000000000000000000008152600401610ebf90611879565b60405180910390fd5b8181036000808673ffffffffffffffffffffffffffffffffffffffff1673ffffffffffffffffffffffffffffffffffffffff16815260200190815260200160002081905550816000808573ffffffffffffffffffffffffffffffffffffffff1673ffffffffffffffffffffffffffffffffffffffff1681526020019081526020016000206000828254610f5b9190611a07565b925050819055508273ffffffffffffffffffffffffffffffffffffffff168473ffffffffffffffffffffffffffffffffffffffff167fddf252ad1be2c89b69c2b068fc378daa952ba7f163c4a11628f55a4df523b3ef84604051610fbf9190611959565b60405180910390a3610fd28484846113da565b50505050565b600073ffffffffffffffffffffffffffffffffffffffff168273ffffffffffffffffffffffffffffffffffffffff161415611048576040517f08c379a000000000000000000000000000000000000000000000000000000000815260040161103f90611939565b60405180910390fd5b611054600083836113d5565b80600260008282546110669190611a07565b92505081905550806000808473ffffffffffffffffffffffffffffffffffffffff1673ffffffffffffffffffffffffffffffffffffffff16815260200190815260200160002060008282546110bb9190611a07565b925050819055508173ffffffffffffffffffffffffffffffffffffffff16600073ffffffffffffffffffffffffffffffffffffffff167fddf252ad1be2c89b69c2b068fc378daa952ba7f163c4a11628f55a4df523b3ef836040516111209190611959565b60405180910390a3611134600083836113da565b5050565b600073ffffffffffffffffffffffffffffffffffffffff168273ffffffffffffffffffffffffffffffffffffffff1614156111a8576040517f08c379a000000000000000000000000000000000000000000000000000000000815260040161119f906118b9565b60405180910390fd5b6111b4826000836113d5565b60008060008473ffffffffffffffffffffffffffffffffffffffff1673ffffffffffffffffffffffffffffffffffffffff1681526020019081526020016000205490508181101561123a576040517f08c379a0000000000000000000000000000000000000000000000000000000008152600401611231906117f9565b60405180910390fd5b8181036000808573ffffffffffffffffffffffffffffffffffffffff1673ffffffffffffffffffffffffffffffffffffffff1681526020019081526020016000208190555081600260008282546112919190611a5d565b92505081905550600073ffffffffffffffffffffffffffffffffffffffff168373ffffffffffffffffffffffffffffffffffffffff167fddf252ad1be2c89b69c2b068fc378daa952ba7f163c4a11628f55a4df523b3ef846040516112f69190611959565b60405180910390a361130a836000846113da565b505050565b6000600560009054906101000a900473ffffffffffffffffffffffffffffffffffffffff16905081600560006101000a81548173ffffffffffffffffffffffffffffffffffffffff021916908373ffffffffffffffffffffffffffffffffffffffff1602179055508173ffffffffffffffffffffffffffffffffffffffff168173ffffffffffffffffffffffffffffffffffffffff167f8be0079c531659141344cd1fd0a4f28419497f9722a3daafe3b4186f6b6457e060405160405180910390a35050565b505050565b505050565b6000813590506113ee81611f4e565b92915050565b60008135905061140381611f65565b92915050565b60006020828403121561141b57600080fd5b6000611429848285016113df565b91505092915050565b6000806040838503121561144557600080fd5b6000611453858286016113df565b9250506020611464858286016113df565b9150509250929050565b60008060006060848603121561148357600080fd5b6000611491868287016113df565b93505060206114a2868287016113df565b92505060406114b3868287016113f4565b9150509250925092565b600080604083850312156114d057600080fd5b60006114de858286016113df565b92505060206114ef858286016113f4565b9150509250929050565b60006020828403121561150b57600080fd5b6000611519848285016113f4565b91505092915050565b61152b81611a91565b82525050565b61153a81611aa3565b82525050565b600061154b826119eb565b61155581856119f6565b9350611565818560208601611ae6565b61156e81611ba9565b840191505092915050565b60006115866023836119f6565b915061159182611bba565b604082019050919050565b60006115a96022836119f6565b91506115b482611c09565b604082019050919050565b60006115cc6026836119f6565b91506115d782611c58565b604082019050919050565b60006115ef6022836119f6565b91506115fa82611ca7565b604082019050919050565b6000611612601d836119f6565b915061161d82611cf6565b602082019050919050565b60006116356026836119f6565b915061164082611d1f565b604082019050919050565b6000611658600e836119f6565b915061166382611d6e565b602082019050919050565b600061167b6020836119f6565b915061168682611d97565b602082019050919050565b600061169e6021836119f6565b91506116a982611dc0565b604082019050919050565b60006116c16019836119f6565b91506116cc82611e0f565b602082019050919050565b60006116e46025836119f6565b91506116ef82611e38565b604082019050919050565b60006117076024836119f6565b915061171282611e87565b604082019050919050565b600061172a6025836119f6565b915061173582611ed6565b604082019050919050565b600061174d601f836119f6565b915061175882611f25565b602082019050919050565b61176c81611acf565b82525050565b61177b81611ad9565b82525050565b60006020820190506117966000830184611522565b92915050565b60006020820190506117b16000830184611531565b92915050565b600060208201905081810360008301526117d18184611540565b905092915050565b600060208201905081810360008301526117f281611579565b9050919050565b600060208201905081810360008301526118128161159c565b9050919050565b60006020820190508181036000830152611832816115bf565b9050919050565b60006020820190508181036000830152611852816115e2565b9050919050565b6000602082019050818103600083015261187281611605565b9050919050565b6000602082019050818103600083015261189281611628565b9050919050565b600060208201905081810360008301526118b28161166e565b9050919050565b600060208201905081810360008301526118d281611691565b9050919050565b600060208201905081810360008301526118f2816116d7565b9050919050565b60006020820190508181036000830152611912816116fa565b9050919050565b600060208201905081810360008301526119328161171d565b9050919050565b6000602082019050818103600083015261195281611740565b9050919050565b600060208201905061196e6000830184611763565b92915050565b60006040820190506119896000830184611763565b818103602083015261199a8161164b565b905092915050565b60006040820190506119b76000830184611763565b81810360208301526119c8816116b4565b905092915050565b60006020820190506119e56000830184611772565b92915050565b600081519050919050565b600082825260208201905092915050565b6000611a1282611acf565b9150611a1d83611acf565b9250827fffffffffffffffffffffffffffffffffffffffffffffffffffffffffffffffff03821115611a5257611a51611b4b565b5b828201905092915050565b6000611a6882611acf565b9150611a7383611acf565b925082821015611a8657611a85611b4b565b5b828203905092915050565b6000611a9c82611aaf565b9050919050565b60008115159050919050565b600073ffffffffffffffffffffffffffffffffffffffff82169050919050565b6000819050919050565b600060ff82169050919050565b60005b83811015611b04578082015181840152602081019050611ae9565b83811115611b13576000848401525b50505050565b60006002820490506001821680611b3157607f821691505b60208210811415611b4557611b44611b7a565b5b50919050565b7f4e487b7100000000000000000000000000000000000000000000000000000000600052601160045260246000fd5b7f4e487b7100000000000000000000000000000000000000000000000000000000600052602260045260246000fd5b6000601f19601f8301169050919050565b7f45524332303a207472616e7366657220746f20746865207a65726f206164647260008201527f6573730000000000000000000000000000000000000000000000000000000000602082015250565b7f45524332303a206275726e20616d6f756e7420657863656564732062616c616e60008201527f6365000000000000000000000000000000000000000000000000000000000000602082015250565b7f4f776e61626c653a206e6577206f776e657220697320746865207a65726f206160008201527f6464726573730000000000000000000000000000000000000000000000000000602082015250565b7f45524332303a20617070726f766520746f20746865207a65726f20616464726560008201527f7373000000000000000000000000000000000000000000000000000000000000602082015250565b7f45524332303a20696e73756666696369656e7420616c6c6f77616e6365000000600082015250565b7f45524332303a207472616e7366657220616d6f756e742065786365656473206260008201527f616c616e63650000000000000000000000000000000000000000000000000000602082015250565b7f546f6b656e73206275726e65642e000000000000000000000000000000000000600082015250565b7f4f776e61626c653a2063616c6c6572206973206e6f7420746865206f776e6572600082015250565b7f45524332303a206275726e2066726f6d20746865207a65726f2061646472657360008201527f7300000000000000000000000000000000000000000000000000000000000000602082015250565b7f4164646974696f6e616c20746f6b656e73206d696e7465642e00000000000000600082015250565b7f45524332303a207472616e736665722066726f6d20746865207a65726f20616460008201527f6472657373000000000000000000000000000000000000000000000000000000602082015250565b7f45524332303a20617070726f76652066726f6d20746865207a65726f2061646460008201527f7265737300000000000000000000000000000000000000000000000000000000602082015250565b7f45524332303a2064656372656173656420616c6c6f77616e63652062656c6f7760008201527f207a65726f000000000000000000000000000000000000000000000000000000602082015250565b7f45524332303a206d696e7420746f20746865207a65726f206164647265737300600082015250565b611f5781611a91565b8114611f6257600080fd5b50565b611f6e81611acf565b8114611f7957600080fd5b5056fea26469706673582212208afe4b8565030e823cd0cd5317e256db2e808f3af77185e3983c7b51ea5b272f64736f6c63430008040033",
  "linkReferences": {},
  "deployedLinkReferences": {}
}